:020000040800F2
:10000000B8060020C5010008731600086514000832
:1000100071160008D1020008011B00080000000052
:10002000000000000000000000000000D3160008DF
:100030001D03000800000000D1160008D5160008B6
:10004000DF010008DF010008DF010008DF01000810
:10005000DF010008DF010008DF010008DF01000800
:10006000DF010008DF010008DF010008DF010008F0
:10007000DF010008DF010008DF010008DF010008E0
:10008000DF010008DF010008DF010008DF010008D0
:10009000DF010008DF010008DF010008DF010008C0
:1000A000DF010008DF010008DF010008DF010008B0
:1000B000DF010008DF010008DF010008DF010008A0
:1000C000DF010008DF010008DF010008DF01000890
:1000D000DF010008DF010008DF010008DF01000880
:1000E000DF010008DF010008DF010008DF01000870
:1000F000DF010008DF010008DF010008DF01000860
:10010000DF010008DF010008DF010008DF0100084F
:10011000DF010008DF010008DF010008DF0100083F
:10012000DF010008DF010008DF010008DF0100082F
:10013000DF010008DF010008DF010008DF0100081F
:10014000DF010008DF010008DF010008DF0100080F
:10015000DF010008DF010008DF010008DF010008FF
:10016000DF010008DF010008DF010008DF010008EF
:10017000DF010008DF010008DF01000800000000C7
:10018000DF010008DF010008DF010008DF010008CF
:10019000DF010008DF010008DF010008DF010008BF
:1001A0000000000000000000DF010008DFF810D0B0
:1001B00000F07CF800480047BD1B0008AFF300804A
:1001C000B80600200648804706480047FEE7FEE7DD
:1001D000FEE7FEE7FEE7FEE7FEE7FEE7FEE7FEE7F7
:1001E0006D170008AD0100082DE9F05F05460020FD
:1001F00092469B4688460646814640241BE0284698
:1002000041464746224600F041F853465A46C01A36
:10021000914110D311461846224600F028F82D1AB5
:1002200067EB01084F4622460120002100F01FF82D
:1002300017EB00094E41201EA4F10104DFDC484603
:1002400031462A464346BDE8F09FD2B201E000F8AD
:10025000012B491EFBD270470022F6E710B513466A
:100260000A4604461946FFF7F0FF204610BD202A33
:1002700004DB203A00FA02F1002070479140C2F1FD
:10028000200320FA03F3194390407047202A04DB2F
:10029000203A21FA02F00021704721FA02F3D040FF
:1002A000C2F120029140084319467047064C074DA1
:1002B00006E0E06840F0010394E807009847103436
:1002C000AC42F6D3FFF776FF241C0008441C00085C
:1002D000FEE7000038B50E4C4FF400752560002590
:1002E000A560E560082525610A4C050A2570607047
:1002F000080AA070E170100A20716271180AA071DA
:10030000E3716B4622460249034800F01CF838BDF1
:10031000AC010020110000201C000020704772B6C4
:10032000FEE790F82020012A07D0022A05D0416A72
:1003300041F48021416201207047006842690A430C
:10034000426100207047F0B590F820500468A4681E
:10035000012D05D0022D03D0416A41F4802157E0E0
:1003600014F0406F01D1E5004FD5C4F301640125BD
:10037000A5401D608D684FF4C0739DB1CE683543B4
:100380004E6845EAC605066803EB0417F5514FF4BD
:10039000C275076805EB04150E697E51097D0129B8
:1003A00005D009E00E88CD6845EA4655EBE70168BF
:1003B0004E5946F480764E511179D579567941EAF5
:1003C000056195792D0445EA062529434FF4C67643
:1003D000056806EB0416A9511178D57841EA056144
:1003E000957852782D0445EA022211434FF4C475E2
:1003F000026805EB04155151006803EB04114258E3
:1004000042F0010242500020F0BD416A41F4001167
:1004100041620120F0BD000010B590F82020012AB3
:1004200007D0022A05D0416A41F4802141620120AF
:1004300010BD3B48D0F8002242F00102C0F8002273
:10044000D0F8002222F47C52C0F80022D0F800221A
:100450004B6A42EA0322C0F800220A7D02F01F0321
:1004600001229A40D0F81C329343C0F81C32CB6969
:10047000B3B9D0F80C329343C0F80C328C894B6876
:1004800064F31F434C6900EBC404C4F840320C8988
:100490000B6864F31F434C6900EBC404C4F8443296
:1004A000CB69012B16D1D0F80C321343C0F80C32B3
:1004B0000C884B6864F31F434C6900EBC404C4F818
:1004C00040320C89CB6864F31F434C6900EBC404D1
:1004D000C4F844328B69002BD0F804320ED0134399
:1004E000C0F804320B69002BD0F8143208D0134343
:1004F000C0F81432096A012904D008E09343EFE7F9
:100500009343F5E7D0F81C121143C0F81C12D0F841
:10051000001221F00101C0F80012002010BD0000FF
:100520000064004070B5040003D094F8200010B1BE
:1005300004E0012070BD204600F082F820680168C8
:1005400041F00101016000F0F5F90546052604E0DF
:1005500000F0F0F9401B0A2811D820684068C00755
:10056000F6D02068016821F00201016000F0E2F994
:1005700005460BE000F0DEF9401B0A2806D9606A48
:1005800040F40030606284F82060D2E72068406860
:100590008007EFD4207E0128206801683DD021F03B
:1005A00080010160607E01282068016838D021F058
:1005B00040010160A07E01282068016833D021F04D
:1005C00020010160E07E0128206801682ED041F002
:1005D00010010160207F01282068016829D021F0E6
:1005E00008010160607F01282068016824D021F0A3
:1005F00004010160D4E902010843D4E90412114363
:1006000008436168491E08432168C8610020606290
:10061000012084F82000002070BD41F08001C0E777
:1006200041F04001C5E741F02001CAE721F0100187
:10063000CFE741F00801D4E741F00401D9E7000019
:1006400010B586B0044614216846FFF705FE13492D
:10065000206888421FD112480021026842F00072CF
:100660000260006800F0007005900D4810380268C4
:1006700042F0080202600068022200F008000590C3
:100680000320CDE90210CDE900020920049069465B
:10069000044800F035F806B010BD000000640040CA
:1006A00040380240000C024070B5044690F820002B
:1006B000012804D0606A40F40020606218E0022043
:1006C00084F820002068016821F00101016000F039
:1006D00031F905460EE000BF00F02CF9401B0A2856
:1006E00008D9606A40F400306062052084F8200078
:1006F000012070BD20684068C007EDD1606270BD08
:100700002DE9F84FDFF8F8A10022012403254FF06E
:100710000F090AF1040BAAF1040E00BF0B6804FADA
:1007200002F63340B34270D10F7907F00307012F6F
:1007300001D0022F16D187684FEA420805FA08FC5B
:1007400027EA0C07D1F80CC00CFA08FC4CEA070C9D
:10075000C0F808C04768B7430E79C6F30016964044
:100760003E4346600E79F643B6070AD0C7684FEAA3
:10077000420C05FA0CF6B7438E6806FA0CF63E43B7
:10078000C6600E7906F00306022E10D1D60800EBE3
:100790008608D8F8206057074FEAD76C09FA0CF79B
:1007A000BE430F6907FA0CF73743C8F82070066894
:1007B0004FEA420C05FA0CF7BE430F7907F0030726
:1007C00007FA0CF7374307604E6816F4403F1CD019
:1007D0004C4E376847F480473760366822F003078D
:1007E00006F480460096484E07EB060CDCF80868D5
:1007F00097073F0F09FA07F826EA0806DFF80C8189
:10080000404503D14FF0000841E072E0DFF800817D
:10081000404502D14FF0010839E0DFF8F88040454B
:1008200002D14FF0020832E0DFF8EC80404502D1FF
:100830004FF003082BE0DFF8E480404502D14FF091
:10084000040824E0DFF8D880404502D14FF00508C5
:100850001DE0DFF8D080404502D14FF0060816E0D9
:10086000DFF8C480404502D14FF007080FE0DFF801
:10087000BC80404502D14FF0080808E0DFF8B080A6
:10088000404502D14FF0090801E04FF00A0808FA8C
:1008900007F848EA0608CCF80888DAF800605746F6
:1008A000D1F804C09E435FEACC2C00D51E433E60C5
:1008B000DBF800605F46D1F804C09E435FEA8C2CF1
:1008C00000D51E433E60DEF800607746D1F804C0D4
:1008D0009E435FEA8C3C00D51E433E60084F083FB4
:1008E0003E68D1F804C09E435FEACC3C00D51E436D
:1008F0003E60521C102AFFF411AFBDE8F88F0000D3
:10090000083C0140443802400030014000000240F1
:100910000004024000080240000C024000100240A7
:100920000014024000180240001C02400020024057
:100930000024024001488068704700000000002049
:1009400002488168027811448160704700000020ED
:100950000B4810B5016841F400710160016841F471
:1009600080610160016841F480710160032000F042
:1009700061F80F2000F006F800F024F8002010BD08
:10098000003C024070B50D4D04464FF47A71287852
:10099000B1FBF0F00A490968B1FBF0F000F0FEFA93
:1009A00048B9102C07D200222146501E00F022F830
:1009B00000206C6070BD012070BD000000000020B0
:1009C0000C0000200A4808B5016841F4804101602C
:1009D000006800F4804000900548001F016841F065
:1009E00080510160006800F08050009008BD000058
:1009F00044380240F0B40E4B1B680C46C3F302238C
:100A0000C3F10705042D00D90425191D072901D2BA
:100A1000002300E0DB1E012606FA05F1491E2140F5
:100A200099409E40761E16403143F0BC01F069B8F3
:100A30000CED00E0064900F0070208684FF6FF03DE
:100A4000184040EA0220034A104308607047000043
:100A50000CED00E00000FA052DE9F0470E46050018
:100A600065D0DFF81481D8F80000F7B200F00F006D
:100A7000B04207D288F80070D8F8000000F00F00EC
:100A8000B04254D128683D4C810712D5400703D5A8
:100A9000206840F4E05020602878000703D52068E3
:100AA00040F4604020602068A96820F0F00008430E
:100AB00020602878C0072DD030496868083901289F
:100AC00012D0022813D0032811D009688907002901
:100AD0002DDA216821F0030101432160FFF72AFF8D
:100AE000814641F2883A0EE009688903EFE7096818
:100AF0008901ECE7FFF71EFFA0EB0901514502D980
:100B00000320BDE8F0872068696800F00C00B0EBB6
:100B1000810FEFD1D8F80010404601F00F01B1422B
:100B200007D90770006800F00F00B04201D0012023
:100B3000E7E72878400705D52068E96820F4E05009
:100B4000084320602878000706D52068296920F42A
:100B5000604040EAC100206000F038F82168084A8F
:100B6000C1F30311515CC84006490860064800689B
:100B7000FFF708FF0020C4E7003C024008380240AD
:100B8000001C00080C000020040000200448054957
:100B900000680968044AC1F38221515CC84070476B
:100BA0000C00002008380240101C000804480549C9
:100BB00000680968044AC1F34231515CC84070477B
:100BC0000C00002008380240101C0008154810B521
:100BD000006810F00C02144813D01449042A0FD0F6
:100BE000082A0ED10F4C241F2268236802F03F020E
:100BF0005B0207D52068C0F38810A0FB010106E066
:100C0000084610BD2168C1F38811A1FB0001002333
:100C1000FFF7EAFA2168C1F30141491C4900B0FB22
:100C2000F1F010BD083802400024F400001BB700AA
:100C30002DE9F84F04006ED02078DFF84C93C00700
:100C4000A9F104054AD009F104000168C1F381014A
:100C5000012908D00068C0F3810002280AD1D9F820
:100C60000000400206D52868800337D56068002858
:100C7000E1D033E06068B0F5803F10D0B0F5A02F30
:100C8000286810D020F480302860286820F4802064
:100C900028606068A8B1FFF74DFE06460DE02868A1
:100CA00040F48030F4E740F480202860F7E700BF8C
:100CB000FFF740FE801B642873D828688003F7D5AF
:100CC0000CE0FFF737FE064605E000BFFFF732FEF7
:100CD000801B6428F0D828688003F7D42078DFF8D8
:100CE000AC8280074FF0000A3ED5A748001D01687E
:100CF00011F00C0F08D00068C0F3810002280BD15E
:100D0000D9F80000400207D42868800716D5E068AB
:100D1000012800D112E033E1E068B8B10120C8F841
:100D20000000FFF707FE064605E000BFFFF702FEE2
:100D3000801B0228C0D828688007F7D52868216959
:100D400020F0F80040EAC10028600DE0C8F800A0DB
:100D5000FFF7F0FD064604E0FFF7ECFD801B0228DC
:100D60001FD828688007F7D42078000722D5864F3F
:100D700087486169703771B101210160FFF7DAFDC1
:100D8000064604E0FFF7D6FD801B022809D8386824
:100D90008007F7D50EE0C0F800A0FFF7CBFD0646B0
:100DA00005E082E0FFF7C6FD801B02287DD8386889
:100DB0008007F7D42078400768D5DFF8CCB100274A
:100DC0000BF13C0BDBF80000C0000BD4DBF800108B
:100DD00041F08051CBF80010DBF80000012700F053
:100DE000805000906B4E3068C00510D4306840F4DD
:100DF00080703060FFF79EFD009005E0FFF79AFDE0
:100E00000099401A022850D83068C005F6D55E4EC9
:100E1000A0686C3601280FD00528306810D020F06B
:100E200001003060306820F004003060A068B8B184
:100E3000FFF780FD00900FE0306840F00100F4E71C
:100E400040F004003060F7E7FFF774FD0099411AA5
:100E500041F28830814266D830688007F4D50EE0D0
:100E6000FFF768FD009007E0FFF764FD0099411A65
:100E700041F28830814256D830688007F4D42FB1CF
:100E8000DBF8001021F08051CBF80010A069C8B346
:100E90003D49091D0968C1F3810102294AD0022890
:100EA000504607D0C8F8600000E03CE0FFF742FD84
:100EB00004463BE04746C8F86000FFF73BFD0646A6
:100EC00005E000BFFFF736FD801B02282BD82868FD
:100ED0008001F7D4D4E907010843A16A2E4A4908E2
:100EE00002EB0141626A41EA8211084394F82C1036
:100EF00040EA0161C9F8001001203866FFF71AFDC9
:100F0000044606E03EE000BFFFF714FD001B022888
:100F100009D828688001F7D534E000BFFFF70AFD43
:100F2000001B022802D90320BDE8F88F2868800141
:100F3000F4D427E00128F7D0D9F80000E26900F4E2
:100F4000800191421CD1226A00F03F01914217D1E9
:100F500047F6C071626A0140B1EB821F10D1A26AEC
:100F60004FF0FF3300F4403103EB5202B1EB024F7C
:100F700006D194F82C1000F07060B0EB016F01D036
:100F80000120D1E70020CFE70438024000004742AB
:100F9000800E4742007000400000FFFF10B5401E69
:100FA000B0F1807F01D3012010BD4FF0E0246061DB
:100FB0000F21601700F0A5FD0020A061072020612F
:100FC000002010BD10B590F83C20012A22D001224B
:100FD00080F83C20CA688C6822F4407222434C6836
:100FE00022F4806222430C6822F4006222430C69DE
:100FF00022F4805222434C6922F400522243C969F0
:10100000002322F480420A4301684A6480F83C309D
:10101000002010BD022010BD70B590F83C20012AC0
:1010200032D0012480F83C40022280F83D20036841
:101030005A689D6822F070060A6832435A60134B62
:1010400002689A4214D0B2F1804F11D0104B9A42EC
:101050000ED0104B9A420BD00F4B9A4208D00F4B38
:101060009A4205D00E4B9A4202D00E4B9A4204D1BE
:10107000496825F080031943916080F83D400021C4
:1010800080F83C10084670BD022070BD0000014091
:101090000004004000080040000C00400004014033
:1010A000004001400018004010B586B004461421ED
:1010B0006846FFF7D1F80E492068884216D10D48DE
:1010C0000021026842F001020260006800F00100A5
:1010D00005904FF4407000900220CDE901010120FD
:1010E000CDE9031069460448FFF70AFB06B010BDBE
:1010F00000000140303802400000024070B5044654
:1011000090F83C0000260D4601280FD0012084F8FD
:101110003C006AB1042A1DD0082A2FD00C2A3FD0E7
:101120000126002084F83C00304670BD022070BDCE
:10113000206800F09DFB2068816941F00801816111
:101140002068816921F004018161206881692A6930
:10115000114311E0206800F0BBFB2068816941F475
:10116000006181612068816921F48061816120686A
:1011700081692A6941EA02218161D2E7206800F091
:10118000DDFB2068C16941F00801C1612068C169C7
:1011900021F00401C1612068C1692A69114311E08D
:1011A000206800F0FFFB2068C16941F40061C16163
:1011B0002068C16921F48061C1612068C1692A6920
:1011C00041EA0221C161ACE710B5040003D094F8F4
:1011D0003D0010B107E0012010BD002084F83C0064
:1011E000204600F01FF8022084F83D00211D2068F1
:1011F00000F0C4FA012084F8460084F83E0084F828
:101200003F0084F8400084F8410084F8420084F8EC
:10121000430084F8440084F8450084F83D00002031
:1012200010BD000008B500680649884208D106488C
:10123000016841F001010160006800F001000090C8
:1012400008BD0000000001404438024010B50446CB
:10125000022249B104290ED0082913D094F8410084
:10126000012816D0012010BD94F83E000128F9D1C4
:1012700084F83E200FE094F83F000128F2D184F872
:101280003F2008E094F840000128EBD184F840208A
:1012900001E084F841200122206800F0DBFA1649C1
:1012A0002068164A884201D0904203D1436C43F42F
:1012B000004343642068884213D0B0F1804F10D0BF
:1012C0000F4988420DD00F4988420AD00E49884202
:1012D00007D0904205D00D49884202D00C4988427F
:1012E00004D1816801F00701062903D0016841F0AB
:1012F00001010160002010BD000001400004014018
:101300000004004000080040000C00400040014084
:101310000018004070B5040004D094F84100002586
:1013200010B106E0012070BD84F84050204600F066
:1013300023F8242084F841002068C16821F400517A
:10134000C160204600F056FB2068016921F49041FD
:1013500001612068416921F02A0141612068C1686A
:1013600041F40051C1606564202084F8410084F894
:1013700042006563002070BDF0B587B004461421BB
:101380006846FEF769FF31492F4F266800222F4833
:101390001039022403230825BE4218D1066846F0FE
:1013A00080460660006800F080400590086840F0C4
:1013B00020000860086802AE00F020000590C02000
:1013C000CDE9000486E82C006946214819E0214F48
:1013D000BE421AD1066846F000460660006800F07A
:1013E00000400590086840F0100008600868CDE9EA
:1013F000003400F01000CDE9045069461648CDE9EC
:101400000223FFF77DF907B0F0BD144DAE42FAD1CB
:10141000056845F480250560006800F4802005908B
:10142000086840F0040008600868029200F00400B8
:1014300005904FF44060CDE900040720CDE903306A
:1014400069460748DDE70000007800404038024068
:1014500000140240007C00400010024000480040A0
:1014600000080240FEE700000F4810B50D4901607A
:101470000321416000214FF410228160C0E9031272
:101480004FF400124261017641768176C176017790
:101490004177FFF747F8002803D0BDE81040FEF77A
:1014A0003EBF10BD006400401C000020194808B574
:1014B000016841F010010160016801F01001009124
:1014C000016841F001010160016801F00101009132
:1014D000016841F008010160016801F00801009114
:1014E000016841F004010160016801F0040100910C
:1014F000016841F080010160016801F08001009104
:10150000016841F020010160006800F020000090B7
:1015100008BD00003038024010B592B000240F948E
:101520001C2168461094FEF797FE202107A8FEF7BD
:1015300093FE24482249C0E900144FF6FF71C0E928
:101540000241046144618461FFF73EFE08B1FEF789
:10155000E6FE0F940FA91B481094FFF75DFD08B13C
:10156000FEF7DDFE6020CDE90004029403940494AC
:1015700005940022694613480694FFF7BFFD08B1A1
:10158000FEF7CDFE042269460E48FFF7B7FD08B10D
:10159000FEF7C5FE0794089409944FF400500A948E
:1015A000CDE90B4007A907480E94FFF70BFD08B1E2
:1015B000FEF7B5FE0348FFF777FD12B010BD00003F
:1015C00000000140440000200C4810B50A490160A9
:1015D0004FF416514160002181600C22C160C0E9C6
:1015E00004128161C161FFF795FE002803D0BDE8B8
:1015F0001040FEF794BE10BD007800408C00002023
:101600000C4810B50A4901604FF4165141600021A1
:1016100081600C22C160C0E904128161C161FFF7E1
:1016200079FE002803D0BDE81040FEF778BE10BD5B
:10163000007C0040D40000200C4810B50A4901602D
:101640004FF4E1314160002181600C22C160C0E9AA
:1016500004128161C161FFF75DFE002803D0BDE87F
:101660001040FEF75CBE10BD004800401C01002089
:10167000FEE7FEE7002827D0002925D091ED001ACB
:1016800080ED001A91ED011A80ED011A91ED021A18
:1016900080ED021A80ED030A9FED0C0AC0ED040AEA
:1016A00080ED0D0A80ED0C0A80ED0B0A80ED070A33
:1016B00080ED0A0A80ED090A80ED080A80ED100A23
:1016C00080ED0F0A80ED0E0A704700000000000058
:1016D00070477047FFF734B930B593B03021684692
:1016E000FEF7BAFD14210CA8FEF7B6FD1D48002533
:1016F000016841F080510160006800F08050119055
:101700001948016841F4404101600068022400F476
:101710004040119001200090000401908001CDE92B
:10172000064006200890A820CDE9090404200B906B
:101730006846FFF77DFA08B172B6FEE70CA90F20E4
:1017400081E831004FF4A0500F904FF4805010907A
:1017500005210CA8FFF780F9002801D072B6FEE73A
:1017600013B030BD403802400070004002480168AC
:1017700041F470010160704788ED00E0F0B5026847
:10178000294C2A4D2A4E2B4F2B4B4FF0804CA04218
:1017900009D0604507D0A84205D0B04203D0B84276
:1017A00001D0984204D122F0700E4A6842EA0E023B
:1017B000A0421BD0604519D0A84217D0B04215D026
:1017C000B84213D0984211D01C4DA8420ED01C4DE7
:1017D000A8420BD01B4DA84208D01B4DA84205D0F3
:1017E0001A4DA84202D01A4DA84203D122F44075E6
:1017F000CA682A434D6922F080022A4302608A683F
:10180000C2620A688262A04201D0984201D109698D
:101810000163012141610169C90703D0016921F018
:1018200001010161F0BD0000000001400004004022
:1018300000080040000C004000040140004001404E
:10184000004401400048014000180040001C0040D6
:101850000020004010B501F01F030121046A9940E7
:101860008C430462016A9A401143016210BD00007A
:10187000F0B5036A026A22F00102026242688469DA
:10188000124E24F073050C682C4323F002058B687C
:101890002B430D4DA84201D0B04205D123F00807DB
:1018A000CB683B4323F00403A84201D0B04205D1EA
:1018B0004D6922F4407215438A692A43426084616B
:1018C000496841630362F0BD00000140000401402B
:1018D000F0B5026A036A23F0100303624368846967
:1018E0000D6824F4E64444EA05248D6822F02002C1
:1018F00042EA05120F4D104EA84201D0B04206D167
:10190000CF6822F0800242EA071222F04002A84289
:1019100001D0B04207D14D6923F4406343EA850307
:101920008D6943EA8503436084614968816302628B
:10193000F0BD00000000014000040140F0B5026A63
:10194000036A23F4807303624368C46922F400725B
:1019500024F073050C68124E2C438D6842EA052270
:101960000E4DA84201D0B04206D1CF6822F40062E9
:1019700042EA072222F48062A84201D0B04207D195
:101980004D6923F4405343EA05138D6943EA051377
:101990004360C4614968C1630262F0BD0000014058
:1019A0000004014030B5046A026A22F480520262E7
:1019B0004268C3690D6823F4E64343EA05238D6852
:1019C00024F4005444EA0534084DA84202D0084DDE
:1019D000A84204D14D6922F4804242EA8512426055
:1019E000C36149680164046230BD00000000014029
:1019F0000004014070B5044600680169E26821F402
:101A00004051114301612169A068E269084361699D
:101A1000114308432168CA6849F20C639A430243A0
:101A2000CA6020684169A26921F440711143416193
:101A300031492068884202D03049884202D1FFF7FC
:101A4000B5F801E0FFF7A2F8E26900231921642547
:101A50003226B2F5004F626828D0A0FB0101930F37
:101A60009200FEF7C1FB0146B0FBF5F06FF01802E3
:101A7000504301EB800006EB0010B0FBF5F000F0E6
:101A8000F002B1FBF5F002EB0012B1FBF5F06FF0E4
:101A90001803584301EB800006EB0010B0FBF5F093
:101AA00000F00F0021681044886070BDA0FB0101A8
:101AB00092185B41FEF798FB0146B0FBF5F002017E
:101AC000B1FBF5F06FF01803584301EB800006EB13
:101AD000C000B0FBF5F000F0F80002EB4002B1FBF3
:101AE000F5F0584301EB800006EBC000B0FBF5F0C9
:101AF00000F00700D6E7000000100140001401408C
:101B0000FEE70907090E002804DB00F1E02080F859
:101B10000014704700F00F0000F1E02080F8141D61
:101B2000704702E008C8121F08C1002AFAD17047A6
:101B30007047002001E001C1121F002AFBD170474D
:101B400000B58BB000200121CDE90601089100907D
:101B50000190029003900590049069460548FEF7B5
:101B60005BFC0448FEF7A0FD02210248FEF7D9FB0A
:101B70000BB000BD1C000020FEB50E4A00260E4F23
:101B800007CA8DE807003546344600BF00EE105AFC
:101B900004EB840007EB0010F8EEC00A00EE106AB8
:101BA00069460C30B8EEC00AFFF764FD641C022CD5
:101BB000ECDBFEBD181C0008C4010020FEF7C8FEC7
:101BC000FFF7BEFF04210D48FFF740FBFFF7D4FFEE
:101BD000FFF782FDFFF76AFCFFF746FCFFF79CFC6E
:101BE000FFF7F2FCFFF70CFDFFF726FD0023642151
:101BF0001A460846FEF76EFBF8E700004400002096
:101C000000000000000000000102030406070809AC
:101C1000000000000102030400002041CDCCCC3DB7
:101C200000000000441C0008000000201C00000010
:101C3000221B0008601C00081C0000209C060000FD
:101C4000321B00080100000010000000000000002E
:101C50000024F4000000000000000000000000006C
:04000005080001AD41
:00000001FF
