:020000040800F2
:1000000008060020C5010008171900080917000894
:1000100015190008D1020008A91D00080000000001
:100020000000000000000000000000007719000838
:10003000E1020008000000007519000879190008A5
:10004000DF010008DF010008DF010008DF01000810
:10005000DF010008DF010008DF010008DF01000800
:10006000DF010008DF010008DF010008DF010008F0
:10007000DF010008DF010008DF010008DF010008E0
:10008000DF010008DF010008DF010008DF010008D0
:10009000D5020008DF010008DF010008DF010008C9
:1000A000DF010008DF010008DF010008DF010008B0
:1000B000DF010008DF010008DF010008DF010008A0
:1000C000DF010008DF010008DF010008DF01000890
:1000D000DF010008DF010008DF010008DF01000880
:1000E000DF010008DF010008DF010008DF01000870
:1000F000DF010008DF010008DF010008DF01000860
:10010000DF010008DF010008DF010008DF0100084F
:10011000DF010008DF010008DF010008DF0100083F
:10012000DF010008DF010008DF010008DF0100082F
:10013000DF010008DF010008DF010008DF0100081F
:10014000DF010008DF010008DF010008DF0100080F
:10015000DF010008DF010008DF010008DF010008FF
:10016000DF010008DF010008DF010008DF010008EF
:10017000DF010008DF010008DF01000800000000C7
:10018000DF010008DF010008DF010008DF010008CF
:10019000DF010008DF010008DF010008DF010008BF
:1001A0000000000000000000DF010008DFF810D0B0
:1001B00000F07CF800480047211E0008AFF30080E3
:1001C000080600200648804706480047FEE7FEE78D
:1001D000FEE7FEE7FEE7FEE7FEE7FEE7FEE7FEE7F7
:1001E000151A0008AD0100082DE9F05F0546002052
:1001F00092469B4688460646814640241BE0284698
:1002000041464746224600F041F853465A46C01A36
:10021000914110D311461846224600F028F82D1AB5
:1002200067EB01084F4622460120002100F01FF82D
:1002300017EB00094E41201EA4F10104DFDC484603
:1002400031462A464346BDE8F09FD2B201E000F8AD
:10025000012B491EFBD270470022F6E710B513466A
:100260000A4604461946FFF7F0FF204610BD202A33
:1002700004DB203A00FA02F1002070479140C2F1FD
:10028000200320FA03F3194390407047202A04DB2F
:10029000203A21FA02F00021704721FA02F3D040FF
:1002A000C2F120029140084319467047064C074DA1
:1002B00006E0E06840F0010394E807009847103436
:1002C000AC42F6D3FFF776FFA81E0008C81E000850
:1002D000FEE70000014800F01AB9000060000020AD
:1002E000704772B6FEE790F82020012A07D0022A54
:1002F00005D0416A41F480214162012070470068C5
:1003000042690A43426100207047000010B590F82E
:100310002020012A07D0022A05D0416A41F4802119
:100320004162012010BD3B48D0F8002242F001029A
:10033000C0F80022D0F8002222F47C52C0F800223B
:10034000D0F800224B6A42EA0322C0F800220A7D5C
:1003500002F01F0301229A40D0F81C329343C0F8E8
:100360001C32CB69B3B9D0F80C329343C0F80C32CD
:100370008C894B6864F31F434C6900EBC404C4F8D8
:1003800040320C890B6864F31F434C6900EBC404D2
:10039000C4F84432CB69012B16D1D0F80C32134388
:1003A000C0F80C320C884B6864F31F434C6900EBB7
:1003B000C404C4F840320C89CB6864F31F434C6911
:1003C00000EBC404C4F844328B69002BD0F804322B
:1003D0000ED01343C0F804320B69002BD0F814324E
:1003E00008D01343C0F81432096A012904D008E088
:1003F0009343EFE79343F5E7D0F81C121143C0F89D
:100400001C12D0F8001221F00101C0F800120020E7
:1004100010BD000000640040704770B590F82040A7
:10042000012C05D0022C03D0416A41F4802128E040
:10043000046809B32469A40720D04FF4D874056870
:1004400004EB01142D5915F00405956005682D592C
:100450001AD0ED08556005682C5904F00204D460E8
:100460004FF4DA74056804EB01142E5906F00F06F8
:10047000082E0CD308250DE0E468DCE7416A41F45E
:1004800000114162012070BD6D0D1560E3E72D592B
:1004900005F00F05156105682D59C5F30725956110
:1004A00005682C59240C54614FF4DC72046802EB8B
:1004B0000112A4581C700468A458240A5C700468D3
:1004C000A458240C9C700468A258120EDA704FF4E1
:1004D000DE72046802EB0112A4581C710468A4586F
:1004E000240A5C710468A458240C9C710468A25806
:1004F000120EDA71006829B1016941F02001016131
:10050000002070BDC16841F02001C160F8E72DE90D
:10051000F05F0546006800244669D0F804908768BB
:10052000D0F80CB0D0F810A0D0F81880F10748D05F
:10053000F90714D001218160B80703D5284600F0DF
:1005400010FA0CE0780702D54FF4006407E0380792
:1005500002D54FF4805402E0284600F001FAF80575
:1005600016D529684FF480708860B80503D52846F1
:1005700000F0F9F90CE0780502D544F4005407E0E6
:10058000380502D544F4804402E0284600F0EAF938
:10059000F80316D529684FF480308860B80303D576
:1005A000284600F0E2F90CE0780302D544F4004458
:1005B00007E0380302D544F4803402E0284600F016
:1005C000D3F9300707D55FEACB6004D5296810203E
:1005D00044F40074C86070074FF0080707D55FEA5D
:1005E0000B7004D52868C760284600F059F9B00799
:1005F00006D52868C068800702D0284600F052F966
:10060000700607D55FEACA6004D52968102044F453
:1006100080640861B00607D55FEA0A7004D52868CF
:100620000761284600F06CF9F00606D528680069D5
:10063000800702D0284600F064F9B00308D55FEACD
:10064000C96005D5296810204860284600F05AF98D
:10065000F00307D55FEA097004D52868476028468B
:1006600000F084F9300446D55FEA497040D5F005C2
:1006700004D55FEAC87001D044F00104B00504D588
:100680005FEA887001D544F00204700504D55FEA82
:10069000487001D544F00404300529D518F0700FD6
:1006A00026D008F07000402815D006DC102809D0AC
:1006B00020280AD0302816D10AE050280ED0602811
:1006C00011D10EE044F008040DE044F010040AE0FB
:1006D00044F0200407E044F0400404E044F08004C7
:1006E00001E044F480742868816921F0700181611F
:1006F000296804204860002C05D0686A204368629D
:100700002846FFF789FEBDE8F09F70B5040003D0CE
:1007100094F8200010B104E0012070BD204600F0E4
:1007200081F82068016841F00101016000F03AFAA7
:100730000546052604E000F035FA401B0A2811D8CA
:1007400020684068C007F6D02068016821F00201E7
:10075000016000F027FA05460BE000F023FA401B89
:100760000A2806D9606A40F40030606284F820608C
:10077000D2E7206840688007EFD4207E01282068F7
:1007800001683DD021F080010160607E0128206871
:10079000016838D021F040010160A07E0128206866
:1007A000016833D021F020010160E07E012820683B
:1007B00001682ED041F010010160207F01282068DF
:1007C000016829D021F008010160607F01282068BC
:1007D000016824D021F004010160D4E9020108433A
:1007E000D4E90412114308436168491E0843216893
:1007F000C86100206062012084F82000002070BDE4
:1008000041F08001C0E741F04001C5E741F020011F
:10081000CAE721F01001CFE741F00801D4E741F029
:100820000401D9E710B586B0044614216846FFF7E5
:1008300013FD18492068884229D117480021026811
:1008400042F000720260006800F0007005901248EB
:100850001038026842F002020260006800F00200F4
:1008600005904FF4407000900220CDE90101032073
:100870000390092004906946084800F079F80022A6
:100880001146142000F0FCF9142000F0EBF906B03A
:1008900010BD0000006400404038024000040240E7
:1008A0007047000000B58BB001AB03AA0021FFF731
:1008B000B4FD0398A0F2012006281AD80E49C0B250
:1008C00000EB800208700D4901EB420031F8123054
:1008D0000381BDF804305BBA21F81230BDF8061070
:1008E00049BA4180BDF8081049BA81809DF80A10C4
:1008F00081710BB000BD000010000020A801002095
:10090000704770477047000070B5044690F82000AB
:10091000012804D0606A40F40020606218E00220E0
:1009200084F820002068016821F00101016000F0D6
:1009300039F905460EE000BF00F034F9401B0A28E3
:1009400008D9606A40F400306062052084F8200015
:10095000012070BD20684068C007EDD1606270BDA5
:100960007047704770477047704770477047000086
:100970002DE9F84FDFF8F8A10022012403254FF0FC
:100980000F090AF1040BAAF1040E00BF0B6804FA68
:1009900002F63340B34270D10F7907F00307012FFD
:1009A00001D0022F16D187684FEA420805FA08FCE9
:1009B00027EA0C07D1F80CC00CFA08FC4CEA070C2B
:1009C000C0F808C04768B7430E79C6F300169640D2
:1009D0003E4346600E79F643B6070AD0C7684FEA31
:1009E000420C05FA0CF6B7438E6806FA0CF63E4345
:1009F000C6600E7906F00306022E10D1D60800EB71
:100A00008608D8F8206057074FEAD76C09FA0CF728
:100A1000BE430F6907FA0CF73743C8F82070066821
:100A20004FEA420C05FA0CF7BE430F7907F00307B3
:100A300007FA0CF7374307604E6816F4403F1CD0A6
:100A40004C4E376847F480473760366822F003071A
:100A500006F480460096484E07EB060CDCF8086862
:100A600097073F0F09FA07F826EA0806DFF80C8116
:100A7000404503D14FF0000841E072E0DFF800810B
:100A8000404502D14FF0010839E0DFF8F8804045D9
:100A900002D14FF0020832E0DFF8EC80404502D18D
:100AA0004FF003082BE0DFF8E480404502D14FF01F
:100AB000040824E0DFF8D880404502D14FF0050853
:100AC0001DE0DFF8D080404502D14FF0060816E067
:100AD000DFF8C480404502D14FF007080FE0DFF88F
:100AE000BC80404502D14FF0080808E0DFF8B08034
:100AF000404502D14FF0090801E04FF00A0808FA1A
:100B000007F848EA0608CCF80888DAF80060574683
:100B1000D1F804C09E435FEACC2C00D51E433E6052
:100B2000DBF800605F46D1F804C09E435FEA8C2C7E
:100B300000D51E433E60DEF800607746D1F804C061
:100B40009E435FEA8C3C00D51E433E60084F083F41
:100B50003E68D1F804C09E435FEACC3C00D51E43FA
:100B60003E60521C102AFFF411AFBDE8F88F000060
:100B7000083C01404438024000300140000002407F
:100B80000004024000080240000C02400010024035
:100B90000014024000180240001C024000200240E5
:100BA00000240240014880687047000000000020D7
:100BB000024881680278114481607047000000207B
:100BC0000B4810B5016841F400710160016841F4FF
:100BD00080610160016841F480710160032000F0D0
:100BE0006FF80F2000F006F800F024F8002010BD88
:100BF000003C024070B50D4D04464FF47A712878E0
:100C0000B1FBF0F00A490968B1FBF0F000F00CFB11
:100C100048B9102C07D200222146501E00F030F8AF
:100C200000206C6070BD012070BD0000000000203D
:100C30000C0000200A4808B5016841F480410160B9
:100C4000006800F4804000900548001F016841F0F2
:100C500080510160006800F08050009008BD0000E5
:100C600044380240002809DB00F01F0201219140B6
:100C70004009800000F1E020C0F80011704700003A
:100C8000F0B40E4B1B680C46C3F30223C3F10705F7
:100C9000042D00D90425191D072901D2002300E0E5
:100CA000DB1E012606FA05F1491E214099409E40AF
:100CB000761E16403143F0BC01F077B80CED00E031
:100CC000064900F0070208684FF6FF03184040EAA3
:100CD0000220034A10430860704700000CED00E05A
:100CE0000000FA052DE9F0470E46050065D0DFF853
:100CF0001481D8F80000F7B200F00F00B04207D21C
:100D000088F80070D8F8000000F00F00B04254D10D
:100D100028683D4C810712D5400703D5206840F470
:100D2000E05020602878000703D5206840F4604038
:100D300020602068A96820F0F0000843206028782F
:100D4000C0072DD0304968680839012812D0022820
:100D500013D0032811D00968890700292DDA2168EA
:100D600021F0030101432160FFF71CFF814641F29E
:100D7000883A0EE009688903EFE709688901ECE722
:100D8000FFF710FFA0EB0901514502D90320BDE890
:100D9000F0872068696800F00C00B0EB810FEFD19C
:100DA000D8F80010404601F00F01B14207D9077092
:100DB000006800F00F00B04201D00120E7E728787A
:100DC000400705D52068E96820F4E050084320601A
:100DD0002878000706D52068296920F4604040EA99
:100DE000C100206000F038F82168084AC1F30311FF
:100DF000515CC8400649086006480068FFF7FAFEE3
:100E00000020C4E7003C024008380240901E000861
:100E10000C0000200400002004480549006809680F
:100E2000044AC1F38221515CC84070470C00002085
:100E300008380240A01E00080448054900680968F7
:100E4000044AC1F34231515CC84070470C00002095
:100E500008380240A01E0008154810B5006810F0C0
:100E60000C02144813D01449042A0FD0082A0ED1BA
:100E70000F4C241F2268236802F03F025B0207D553
:100E80002068C0F38810A0FB010106E0084610BDF1
:100E90002168C1F38811A1FB00010023FFF7A4F929
:100EA0002168C1F30141491C4900B0FBF1F010BDBC
:100EB000083802400024F40040787D012DE9F84F05
:100EC00004006ED02078DFF84C93C007A9F1040528
:100ED0004AD009F104000168C1F38101012908D059
:100EE0000068C0F3810002280AD1D9F8000040024E
:100EF00006D52868800337D560680028E1D033E044
:100F00006068B0F5803F10D0B0F5A02F286810D0F1
:100F100020F480302860286820F4802028606068F1
:100F2000A8B1FFF73FFE06460DE0286840F4803088
:100F3000F4E740F480202860F7E700BFFFF732FEB7
:100F4000801B642873D828688003F7D50CE0FFF76E
:100F500029FE064605E000BFFFF724FE801B64283B
:100F6000F0D828688003F7D42078DFF8AC828007B7
:100F70004FF0000A3ED5A748001D016811F00C0F84
:100F800008D00068C0F3810002280BD1D9F8000016
:100F9000400207D42868800716D5E068012800D1F0
:100FA00012E033E1E068B8B10120C8F80000FFF7B3
:100FB000F9FD064605E000BFFFF7F4FD801B02289F
:100FC000C0D828688007F7D52868216920F0F80084
:100FD00040EAC10028600DE0C8F800A0FFF7E2FD7C
:100FE000064604E0FFF7DEFD801B02281FD82868B4
:100FF0008007F7D42078000722D5864F874861699B
:10100000703771B101210160FFF7CCFD064604E0A5
:10101000FFF7C8FD801B022809D838688007F7D57C
:101020000EE0C0F800A0FFF7BDFD064605E082E037
:10103000FFF7B8FD801B02287DD838688007F7D4F9
:101040002078400768D5DFF8CCB100270BF13C0BC6
:10105000DBF80000C0000BD4DBF8001041F0805139
:10106000CBF80010DBF80000012700F08050009062
:101070006B4E3068C00510D4306840F4807030602A
:10108000FFF790FD009005E0FFF78CFD0099401AF6
:10109000022850D83068C005F6D55E4EA0686C3680
:1010A00001280FD00528306810D020F001003060F2
:1010B000306820F004003060A068B8B1FFF772FD1E
:1010C00000900FE0306840F00100F4E740F00400C9
:1010D0003060F7E7FFF766FD0099411A41F288306A
:1010E000814266D830688007F4D50EE0FFF75AFDDC
:1010F000009007E0FFF756FD0099411A41F2883051
:10110000814256D830688007F4D42FB1DBF8001044
:1011100021F08051CBF80010A069C8B33D49091DEA
:101120000968C1F3810102294AD00228504607D03C
:10113000C8F8600000E03CE0FFF734FD04463BE007
:101140004746C8F86000FFF72DFD064605E000BFE2
:10115000FFF728FD801B02282BD828688001F7D4D0
:10116000D4E907010843A16A2E4A490802EB01416C
:10117000626A41EA8211084394F82C1040EA016146
:10118000C9F8001001203866FFF70CFD044606E0A0
:101190003EE000BFFFF706FD001B022809D82868C3
:1011A0008001F7D534E000BFFFF7FCFC001B0228EC
:1011B00002D90320BDE8F88F28688001F4D427E025
:1011C0000128F7D0D9F80000E26900F480019142CB
:1011D0001CD1226A00F03F01914217D147F6C0713D
:1011E000626A0140B1EB821F10D1A26A4FF0FF3357
:1011F00000F4403103EB5202B1EB024F06D194F8F8
:101200002C1000F07060B0EB016F01D00120D1E72D
:101210000020CFE70438024000004742800E4742DA
:10122000007000400000FFFF10B5401EB0F1807F4D
:1012300001D3012010BD4FF0E02460610F21601741
:1012400000F0B3FD0020A06107202061002010BD48
:1012500010B590F83C20012A22D0012280F83C20D1
:10126000CA688C6822F4407222434C6822F480627F
:1012700022430C6822F4006222430C6922F480525B
:1012800022434C6922F400522243C969002322F40C
:1012900080420A4301684A6480F83C30002010BD57
:1012A000022010BD70B590F83C20012A32D00124F4
:1012B00080F83C40022280F83D2003685A689D680F
:1012C00022F070060A6832435A60134B02689A4251
:1012D00014D0B2F1804F11D0104B9A420ED0104B67
:1012E0009A420BD00F4B9A4208D00F4B9A4205D02E
:1012F0000E4B9A4202D00E4B9A4204D1496825F017
:1013000080031943916080F83D40002180F83C1033
:10131000084670BD022070BD00000140000400407E
:1013200000080040000C0040000401400040014063
:101330000018004010B586B0044614216846FEF738
:101340008BFF0E492068884216D10D4800210268A3
:1013500042F001020260006800F0010005904FF4C5
:10136000407000900220CDE901010120CDE9031079
:1013700069460448FFF7FCFA06B010BD00000140C2
:10138000303802400000024070B5044690F83C003E
:1013900000260D4601280FD0012084F83C006AB1D8
:1013A000042A1DD0082A2FD00C2A3FD00126002065
:1013B00084F83C00304670BD022070BD206800F00B
:1013C000ABFB2068816941F0080181612068816977
:1013D00021F004018161206881692A69114311E0CB
:1013E000206800F0C9FB2068816941F400618161D7
:1013F0002068816921F480618161206881692A699E
:1014000041EA02218161D2E7206800F0EBFB20680D
:10141000C16941F00801C1612068C16921F004017E
:10142000C1612068C1692A69114311E0206800F098
:101430000DFC2068C16941F40061C1612068C16987
:1014400021F48061C1612068C1692A6941EA0221F1
:10145000C161ACE710B5040003D094F83D0010B1B1
:1014600007E0012010BD002084F83C00204600F079
:101470001FF8022084F83D00211D206800F0D2FAF8
:10148000012084F8460084F83E0084F83F0084F888
:10149000400084F8410084F8420084F8430084F856
:1014A000440084F8450084F83D00002010BD000091
:1014B00008B500680649884208D10648016841F02D
:1014C00001010160006800F00100009008BD00000B
:1014D000000001404438024010B50446022249B1E0
:1014E00004290ED0082913D094F84100012816D001
:1014F000012010BD94F83E000128F9D184F83E2067
:101500000FE094F83F000128F2D184F83F2008E072
:1015100094F840000128EBD184F8402001E084F8E1
:1015200041200122206800F0E9FA16492068164A95
:10153000884201D0904203D1436C43F4004343649A
:101540002068884213D0B0F1804F10D00F498842F4
:101550000DD00F4988420AD00E49884207D09042E8
:1015600005D00D49884202D00C49884204D18168D7
:1015700001F00701062903D0016841F00101016073
:10158000002010BD000001400004014000040040A4
:1015900000080040000C00400040014000180040DE
:1015A00070B5040004D094F84100002510B106E0A5
:1015B000012070BD84F84050204600F023F824201C
:1015C00084F841002068C16821F40051C1602046C0
:1015D00000F064FB2068016921F4904101612068FA
:1015E000416921F02A0141612068C16841F400513C
:1015F000C1606564202084F8410084F8420065637E
:10160000002070BDF0B587B0044614216846FEF78F
:1016100023FE3749DFF8D4C023680024344A103948
:101620000225032608273348634514D1136843F481
:1016300000231360126802F4002205920A6842F047
:1016400004020A60096801F004010591B102CDE9C4
:10165000001569462AE0DFF8A0C063452DD1136864
:1016600043F480131360126802F4801205920A6832
:1016700042F004020A600A6802F0040205920A6855
:1016800042F008020A60096802AB01F00801059106
:101690004FF48051CDE9001583E8D0006946FFF78B
:1016A00067F90420CDE900051448694602AB83E8D8
:1016B000D000FFF75DF907B0F0BD11488342FAD1C1
:1016C000106840F080401060106800F08040059085
:1016D000086840F0200008600868694600F02000B3
:1016E0000590C020CDE900050648DFE7004C00402A
:1016F000403802400008024000500040000C024008
:101700000078004000140240FEE700000F4810B5CA
:101710000D4901600321416000214FF410228160D6
:10172000C0E903124FF400124261017641768176DE
:10173000C17601774177FEF7E8FF002803D0BDE8C6
:101740001040FEF7CEBD10BD0064004060000020D8
:10175000194808B5016841F002010160016801F013
:1017600002010091016841F004010160016801F08B
:1017700004010091016841F001010160016801F07C
:1017800001010091016841F008010160016801F068
:1017900008010091016841F080010160016801F0D9
:1017A00080010091016841F020010160006800F0B3
:1017B0002000009008BD00003038024010B592B003
:1017C00000240F941C2168461094FEF745FD20214B
:1017D00007A8FEF741FD24482249C0E900144FF64E
:1017E000FF71C0E90241046144618461FFF732FE88
:1017F00008B1FEF776FD0F940FA91B481094FFF770
:1018000051FD08B1FEF76DFD6020CDE900040294A2
:101810000394049405940022694613480694FFF744
:10182000B3FD08B1FEF75DFD042269460E48FFF7DF
:10183000ABFD08B1FEF755FD0794089409944FF4E9
:1018400000500A94CDE90B4007A907480E94FFF712
:10185000FFFC08B1FEF745FD0348FFF76BFD12B032
:1018600010BD000000000140880000200C4810B5A9
:101870000A4901604FF4E1314160002181600C228E
:10188000C160C0E904128161C161FFF789FE0028CF
:1018900003D0BDE81040FEF724BD10BD004C004051
:1018A000D00000200C4810B50A4901604FF41651D1
:1018B0004160002181600C22C160C0E90412816195
:1018C000C161FFF76DFE002803D0BDE81040FEF7B0
:1018D00008BD10BD00500040180100200C4810B594
:1018E0000A4901604FF416514160002181600C22C9
:1018F000C160C0E904128161C161FFF751FE002897
:1019000003D0BDE81040FEF7ECBC10BD00780040ED
:1019100060010020FEE7FEE7002827D0002925D03F
:1019200091ED001A80ED001A91ED011A80ED011A77
:1019300091ED021A80ED021A80ED030A9FED0C0A68
:10194000C0ED040A80ED0D0A80ED0C0A80ED0B0A53
:1019500080ED070A80ED0A0A80ED090A80ED080A89
:1019600080ED100A80ED0F0A80ED0E0A704700002E
:101970000000000070477047FFF71AB930B593B008
:1019800030216846FEF768FC14210CA8FEF764FCC1
:101990001E480025016841F080510160006800F098
:1019A000805011901A48016841F44041016000687C
:1019B000022400F4404011900120009000040190A6
:1019C0008001CDE90640192008904FF4A870CDE9B8
:1019D000090404200B906846FFF770FA08B172B64C
:1019E000FEE70CA90F2081E831004FF4A0500F90C2
:1019F0004FF48050109005210CA8FFF773F90028D0
:101A000001D072B6FEE713B030BD0000403802408E
:101A1000007000400248016841F4700101607047A5
:101A200088ED00E0F0B50268294C2A4D2A4E2B4F74
:101A30002B4B4FF0804CA04209D0604507D0A84204
:101A400005D0B04203D0B84201D0984204D122F070
:101A5000700E4A6842EA0E02A0421BD0604519D0BF
:101A6000A84217D0B04215D0B84213D0984211D036
:101A70001C4DA8420ED01C4DA8420BD01B4DA842B5
:101A800008D01B4DA84205D01A4DA84202D01A4DCD
:101A9000A84203D122F44075CA682A434D6922F056
:101AA00080022A4302608A68C2620A688262A04297
:101AB00001D0984201D109690163012141610169A5
:101AC000C90703D0016921F001010161F0BD0000E7
:101AD000000001400004004000080040000C0040ED
:101AE0000004014000400140004401400048014022
:101AF00000180040001C00400020004010B501F01C
:101B00001F030121046A99408C430462016A9A40D0
:101B10001143016210BD0000F0B5036A026A22F0B1
:101B20000102026242688469124E24F073050C6857
:101B30002C4323F002058B682B430D4DA84201D0A6
:101B4000B04205D123F00807CB683B4323F00403E0
:101B5000A84201D0B04205D14D6922F4407215432C
:101B60008A692A4342608461496841630362F0BD27
:101B70000000014000040140F0B5026A036A23F04E
:101B800010030362436884690D6824F4E64444EA60
:101B900005248D6822F0200242EA05120F4D104EF6
:101BA000A84201D0B04206D1CF6822F0800242EABA
:101BB000071222F04002A84201D0B04207D14D697D
:101BC00023F4406343EA85038D6943EA8503436058
:101BD0008461496881630262F0BD00000000014039
:101BE00000040140F0B5026A036A23F480730362C3
:101BF0004368C46922F4007224F073050C68124E25
:101C00002C438D6842EA05220E4DA84201D0B04215
:101C100006D1CF6822F4006242EA072222F48062F1
:101C2000A84201D0B04207D14D6923F4405343EAA2
:101C300005138D6943EA05134360C4614968C163B4
:101C40000262F0BD000001400004014030B5046AAA
:101C5000026A22F4805202624268C3690D6823F46A
:101C6000E64343EA05238D6824F4005444EA05342E
:101C7000084DA84202D0084DA84204D14D6922F473
:101C8000804242EA85124260C3614968016404628D
:101C900030BD0000000001400004014070B5044662
:101CA00000680169E26821F4405111430161216932
:101CB000A068E26908436169114308432168CA6862
:101CC00049F20C639A430243CA6020684169A269E1
:101CD00021F440711143416131492068884202D0AA
:101CE0003049884202D1FFF7A7F801E0FFF794F8E6
:101CF000E2690023192164253226B2F5004F62689B
:101D000028D0A0FB0101930F9200FEF76DFA014667
:101D1000B0FBF5F06FF01802504301EB800006EBCA
:101D20000010B0FBF5F000F0F002B1FBF5F002EBB3
:101D30000012B1FBF5F06FF01803584301EB80007F
:101D400006EB0010B0FBF5F000F00F002168104426
:101D5000886070BDA0FB010192185B41FEF744FA58
:101D60000146B0FBF5F00201B1FBF5F06FF018038E
:101D7000584301EB800006EBC000B0FBF5F000F02B
:101D8000F80002EB4002B1FBF5F0584301EB800094
:101D900006EBC000B0FBF5F000F00700D6E700004E
:101DA0000010014000140140FEE70907090E002859
:101DB00004DB00F1E02080F80014704700F00F0011
:101DC00000F1E02080F8141D704702E008C8121FDF
:101DD00008C1002AFAD170477047002001E001C114
:101DE000121F002AFBD1704700B58BB000200121E3
:101DF000CDE90601089100900190029003900590B2
:101E0000049069460548FEF781FA0448FEF77CFD18
:101E100002210248FEF767FA0BB000BD6000002007
:101E2000FEF7CEFEFFF7E0FF02211048FEF75BFA57
:101E30000E48FEF769FD04210D48FFF74DFBDFED6D
:101E40000D0A9FED0D0A0D490D48FFF765FDFFF7DF
:101E500095FDFFF77DFCFFF759FCFFF7AFFCFFF79F
:101E600005FDFFF71FFDFFF739FDFEE760000020CD
:101E70008800002000409C4500401C46841E00084D
:101E80001C00002000004040CDCCCC3D00000000F4
:101E9000000000000000000001020304060708091A
:101EA0000000000001020304C81E0008000000201A
:101EB0001C000000CA1D0008E41E00081C000020D1
:101EC000EC050000DA1D0008010000001000000011
:101ED000000000000024F4000000000000000000EA
:041EE00000000000FE
:04000005080001AD41
:00000001FF
